:020000040800F2
:100000000050002045140008F1030008F703000821
:10001000FD030008030400080904000800000000B4
:100020000000000000000000000000000F040008B5
:100030001B04000800000000270400083304000827
:100040008D1400088D1400088D1400088D1400080C
:100050008D1400088D1400088D1400088D140008FC
:100060008D1400088D1400088D1400088D140008EC
:100070008D1400088D1400088D1400088D140008DC
:100080008D1400088D1400088D1400088D140008CC
:100090008D1400088D1400088D1400088D140008BC
:1000A0008D1400088D1400088D1400088D140008AC
:1000B0008D1400088D1400088D1400088D1400089C
:1000C0008D1400088D1400088D1400088D1400088C
:1000D0008D1400088D1400088D1400088D1400087C
:1000E0008D1400088D1400088D1400080000000015
:1000F0000000000000000000000000000000000000
:0C01000000000000000000005FF808F1A3
:10010C0010B5054C237833B9044B13B10448AFF345
:10011C0000800123237010BD0C00002000000000A3
:10012C00E814000808B5034B1BB103490348AFF3AF
:10013C00008008BD0000000010000020E81400083A
:10014C0080B500AF00F07CF900F01AF800F088F8E8
:10015C0000F05CF801220821084800F05FFC4FF425
:10016C00FA7000F0CFF900220821044800F056FC88
:10017C004FF4FA7000F0C6F9ECE700BF000801403C
:10018C0080B590B000AF07F1180328220021184663
:10019C0001F09CF93B1D00221A605A609A60DA60EB
:1001AC001A610123BB614FF48033FB6100233B6276
:1001BC000123BB6202237B634FF48033BB634FF498
:1001CC00E013FB6307F11803184600F03FFC0346ED
:1001DC00002B01D000F082F80F237B600223BB6060
:1001EC000023FB604FF480633B6100237B613B1D6C
:1001FC000221184600F0ACFE0346002B01D000F0A3
:10020C006DF800BF4037BD4680BD000080B500AF23
:10021C00114B124A1A60104B4FF4E1325A600E4BDC
:10022C0000229A600C4B0022DA600B4B00221A6100
:10023C00094B0C225A61084B00229A61064B002292
:10024C00DA61054801F01CF80346002B01D000F0E0
:10025C0045F800BF80BD00BF2800002000380140D9
:10026C0080B586B000AF07F1080300221A605A600F
:10027C009A60DA60174B9B69164A43F0200393612E
:10028C00144B9B6903F020037B607B68114B9B69CB
:10029C00104A43F0040393610E4B9B6903F0040373
:1002AC003B603B68002208210B4800F0B7FB082399
:1002BC00BB600123FB6000233B6102237B6107F1E0
:1002CC0008031946044800F025FA00BF1837BD464C
:1002DC0080BD00BF001002400008014080B400AF98
:1002EC0072B600BFFEE7000080B485B000AF154BBE
:1002FC009B69144A43F001039361124B9B6903F011
:10030C000103BB60BB680F4BDB690E4A43F08053A3
:10031C00D3610C4BDB6903F080537B607B680A4B29
:10032C005B68FB60FB6823F0E063FB60FB6843F0F9
:10033C000073FB60044AFB68536000BF1437BD4672
:10034C0080BC7047001002400000014080B588B0AE
:10035C0000AF786007F1100300221A605A609A60AF
:10036C00DA607B681B681C4A934231D11B4B9B693A
:10037C001A4A43F480439361184B9B6903F48043FE
:10038C00FB60FB68154B9B69144A43F004039361B3
:10039C00124B9B6903F00403BB60BB684FF4007302
:1003AC003B6102237B610323FB6107F110031946B8
:1003BC000B4800F0AFF94FF480633B6100237B6185
:1003CC000023BB6107F110031946054800F0A2F9A0
:1003DC0000BF2037BD4680BD0038014000100240F0
:1003EC000008014080B400AFFEE780B400AFFEE728
:1003FC0080B400AFFEE780B400AFFEE780B400AF7E
:10040C00FEE780B400AF00BFBD4680BC704780B42F
:10041C0000AF00BFBD4680BC704780B400AF00BFCA
:10042C00BD4680BC704780B500AF00F04FF800BFF0
:10043C0080BD80B400AF00BFBD4680BC70470000DB
:10044C0080B500AF084B1B68074A43F010031360DC
:10045C00032000F02BF90F2000F008F8FFF744FF01
:10046C000023184680BD00BF0020024080B582B03A
:10047C0000AF7860124B1A68124B1B7819464FF478
:10048C007A73B3FBF1F3B2FBF3F3184600F035F9D2
:10049C000346002B01D001230EE07B680F2B0AD8FA
:1004AC00002279684FF0FF3000F00BF9064A7B68A8
:1004BC001360002300E0012318460837BD4680BDB9
:1004CC0000000020080000200400002080B400AFD1
:1004DC00054B1B781A46054B1B681344034A1360E3
:1004EC0000BFBD4680BC7047080000206C00002097
:1004FC0080B400AF024B1B681846BD4680BC7047E9
:10050C006C00002080B584B000AF7860FFF7F0FF7E
:10051C00B8607B68FB60FB68B3F1FF3F05D00A4B0A
:10052C001B781A46FB681344FB6000BFFFF7E0FF23
:10053C000246BB68D31AFA689A42F7D800BF00BFCC
:10054C001037BD4680BD00BF0800002080B485B0C8
:10055C0000AF78607B6803F00703FB600C4BDB6833
:10056C00BB60BA684FF6FF031340BB60FB681A020E
:10057C00BB68134343F0BF6343F40033BB60044ACE
:10058C00BB68D36000BF1437BD4680BC704700BF4A
:10059C0000ED00E080B400AF044BDB681B0A03F0F5
:1005AC0007031846BD4680BC704700BF00ED00E055
:1005BC0080B483B000AF03463960FB7197F9073004
:1005CC00002B0ADB3B68DAB20C4997F907301201B1
:1005DC00D2B20B4483F800230AE03B68DAB2084934
:1005EC00FB7903F00F03043B1201D2B20B441A76D1
:1005FC0000BF0C37BD4680BC704700BF00E100E077
:10060C0000ED00E080B489B000AFF860B9607A60AA
:10061C00FB6803F00703FB61FB69C3F10703042BC1
:10062C0028BF0423BB61FB690433062B02D9FB6989
:10063C00033B00E000237B614FF0FF32BB6902FA01
:10064C0003F3DA43BB681A407B699A404FF0FF31E1
:10065C007B6901FA03F3D9437B680B4013431846BB
:10066C002437BD4680BC704780B582B000AF78603F
:10067C007B68013BB3F1807F01D301230FE00A4A71
:10068C007B68013B53600F214FF0FF30FFF790FF69
:10069C00054B00229A60044B07221A60002318466F
:1006AC000837BD4680BD00BF10E000E080B582B0C9
:1006BC0000AF78607868FFF749FF00BF0837BD4688
:1006CC0080BD80B586B000AF0346B9607A60FB731D
:1006DC0000237B61FFF75EFF78617A68B9687869FF
:1006EC00FFF790FF024697F90F3011461846FFF7B7
:1006FC005FFF00BF1837BD4680BD80B582B000AF2C
:10070C0078607868FFF7B0FF034618460837BD4697
:10071C0080BD000080B48BB000AF786039600023DE
:10072C007B6200233B6269E101227B6A02FA03F3DC
:10073C00FB613B681B68FA691340BB61BA69FB69D2
:10074C009A4240F058813B685B689A4A93425ED06B
:10075C00984A934275D8984A934258D0964A9342F5
:10076C006FD8964A934252D0944A934269D8944A8D
:10077C0093424CD0924A934263D8924A934246D0C9
:10078C00904A93425DD8122B2AD8122B59D801A229
:10079C0052F823F01B080008F507000807080008AA
:1007AC00490800084F0800084F0800084F080008C7
:1007BC004F0800084F0800084F0800084F080008B1
:1007CC004F0800084F0800084F0800084F080008A1
:1007DC004F0800084F080008FD0700081108000822
:1007EC00794A934213D02CE03B68DB683B6229E0EA
:1007FC003B68DB6804333B6224E03B68DB6808330E
:10080C003B621FE03B68DB680C333B621AE03B68E1
:10081C009B68002B02D104233B6213E03B689B686E
:10082C00012B05D108233B627B68FA691A6109E048
:10083C0008233B627B68FA695A6103E000233B6240
:10084C0000E000BFBB69FF2B01D87B6801E07B682F
:10085C0004337B61BB69FF2B02D87B6A9B0002E0EF
:10086C007B6A083B9B003B617B691A680F213B69E3
:10087C0001FA03F3DB431A40396A3B6901FA03F3CB
:10088C001A437B691A603B685B6803F08053002B4A
:10089C0000F0B1804D4B9B694C4A43F001039361CE
:1008AC004A4B9B6903F00103BB60BB68484A7B6AF7
:1008BC009B08023352F82330FB607B6A03F003037E
:1008CC009B000F2202FA03F3DB43FA681340FB6030
:1008DC007B68404A934213D07B683F4A93420DD0C9
:1008EC007B683E4A934207D07B683D4A934201D1D4
:1008FC00032306E0042304E0022302E0012300E0CA
:10090C0000237A6A02F0030292009340FA681343C0
:10091C00FB602F497B6A9B080233FA6841F823205D
:10092C003B685B6803F48033002B06D02D4B1A68B0
:10093C002C49BB6913430B6006E02A4B1A68BB6950
:10094C00DB43284913400B603B685B6803F40033BE
:10095C00002B06D0234B5A682249BB6913434B60CA
:10096C0006E0204B5A68BB69DB431E4913404B60C1
:10097C003B685B6803F48013002B06D0194B9A6814
:10098C001849BB6913438B6006E0164B9A68BB6928
:10099C00DB43144913408B603B685B6803F4001322
:1009AC00002B21D00F4BDA680E49BB691343CB6087
:1009BC0021E000BF000032100000311000002210B6
:1009CC000000211000001210000011100010024055
:1009DC000000014000080140000C014000100140E3
:1009EC0000140140000401400B4BDA68BB69DB4387
:1009FC0009491340CB607B6A01337B623B681A6800
:100A0C007B6A22FA03F3002B7FF48EAE00BF00BF8B
:100A1C002C37BD4680BC70470004014080B483B0C5
:100A2C0000AF78600B467B8013467B707B78002B85
:100A3C0003D07A887B681A6103E07B881A047B6890
:100A4C001A6100BF0C37BD4680BC704780B586B0BC
:100A5C0000AF78607B68002B01D1012372E27B68C8
:100A6C001B6803F00103002B00F08780924B5B683E
:100A7C0003F00C03042B0CD08F4B5B6803F00C03BE
:100A8C00082B12D18C4B5B6803F48033B3F5803F99
:100A9C000BD1894B1B6803F40033002B6CD07B68A3
:100AAC005B68002B68D101234CE27B685B68B3F573
:100ABC00803F06D1804B1B687F4A43F48033136020
:100ACC002EE07B685B68002B0CD17B4B1B687A4A51
:100ADC0023F480331360784B1B68774A23F480230C
:100AEC0013601DE07B685B68B3F5A02F0CD1724BD3
:100AFC001B68714A43F4802313606F4B1B686E4A6A
:100B0C0043F4803313600BE06B4B1B686A4A23F48D
:100B1C0080331360684B1B68674A23F4802313608F
:100B2C007B685B68002B13D0FFF7E2FC386108E0B0
:100B3C00FFF7DEFC02463B69D31A642B01D9032371
:100B4C0000E25D4B1B6803F40033002BF0D014E083
:100B5C00FFF7CEFC386108E0FFF7CAFC02463B69A0
:100B6C00D31A642B01D90323ECE1534B1B6803F418
:100B7C000033002BF0D100E000BF7B681B6803F052
:100B8C000203002B63D04C4B5B6803F00C03002B6F
:100B9C000BD0494B5B6803F00C03082B1CD1464B64
:100BAC005B6803F48033002B16D1434B1B6803F0B6
:100BBC000203002B05D07B681B69012B01D001239C
:100BCC00C0E13D4B1B6823F0F8027B685B69DB00DE
:100BDC00394913430B603AE07B681B69002B20D02A
:100BEC00364B01221A60FFF783FC386108E0FFF7EF
:100BFC007FFC02463B69D31A022B01D90323A1E1E6
:100C0C002D4B1B6803F00203002BF0D02A4B1B6802
:100C1C0023F0F8027B685B69DB00274913430B6008
:100C2C0015E0264B00221A60FFF762FC386108E0E1
:100C3C00FFF75EFC02463B69D31A022B01D9032352
:100C4C0080E11D4B1B6803F00203002BF0D17B6885
:100C5C001B6803F00803002B3AD07B689B69002BC0
:100C6C0019D0174B01221A60FFF742FC386108E0DB
:100C7C00FFF73EFC02463B69D31A022B01D9032332
:100C8C0060E10D4B5B6A03F00203002BF0D00120F6
:100C9C0000F0D8FA1CE00A4B00221A60FFF728FC7F
:100CAC0038610FE0FFF724FC02463B69D31A022B94
:100CBC0008D9032346E100BF001002400000424265
:100CCC0080044242924B5B6A03F00203002BE9D191
:100CDC007B681B6803F00403002B00F0A680002344
:100CEC00FB758B4BDB6903F08053002B0DD1884BCC
:100CFC00DB69874A43F08053D361854BDB6903F092
:100D0C008053BB60BB680123FB75824B1B6803F4EB
:100D1C008073002B18D17F4B1B687E4A43F4807381
:100D2C001360FFF7E5FB386108E0FFF7E1FB0246D3
:100D3C003B69D31A642B01D9032303E1754B1B6860
:100D4C0003F48073002BF0D07B68DB68012B06D199
:100D5C006F4B1B6A6E4A43F0010313622DE07B68F4
:100D6C00DB68002B0CD16A4B1B6A694A23F0010328
:100D7C001362674B1B6A664A23F0040313621CE080
:100D8C007B68DB68052B0CD1614B1B6A604A43F016
:100D9C00040313625E4B1B6A5D4A43F0010313624A
:100DAC000BE05B4B1B6A5A4A23F001031362584B4E
:100DBC001B6A574A23F0040313627B68DB68002B21
:100DCC0015D0FFF795FB38610AE0FFF791FB02465F
:100DDC003B69D31A41F28832934201D90323B1E023
:100DEC004B4B1B6A03F00203002BEED014E0FFF711
:100DFC007FFB38610AE0FFF77BFB02463B69D31AA5
:100E0C0041F28832934201D903239BE0404B1B6A89
:100E1C0003F00203002BEED1FB7D012B05D13C4BE3
:100E2C00DB693B4A23F08053D3617B68DB69002B81
:100E3C0000F08780364B5B6803F00C03082B61D005
:100E4C007B68DB69022B46D1334B00221A60FFF71B
:100E5C004FFB386108E0FFF74BFB02463B69D31AA6
:100E6C00022B01D903236DE0294B1B6803F000739F
:100E7C00002BF0D17B681B6AB3F5803F08D1244B63
:100E8C005B6823F400327B689B68214913434B60F9
:100E9C001F4B5B6823F474127B68196A7B685B6A6E
:100EAC000B431B4913434B601B4B01221A60FFF78A
:100EBC001FFB386108E0FFF71BFB02463B69D31AA6
:100ECC00022B01D903233DE0114B1B6803F0007387
:100EDC00002BF0D035E0104B00221A60FFF708FB16
:100EEC00386108E0FFF704FB02463B69D31A022B7A
:100EFC0001D9032326E0064B1B6803F00073002B7B
:100F0C00F0D11EE07B68DB69012B07D1012319E0CE
:100F1C000010024000700040600042420B4B5B68C6
:100F2C00FB60FB6803F480327B681B6A9A4206D133
:100F3C00FB6803F470127B685B6A9A4201D0012350
:100F4C0000E0002318461837BD4680BD0010024053
:100F5C0080B584B000AF786039607B68002B01D11C
:100F6C000123D0E06A4B1B6803F007033A689A42EE
:100F7C0010D9674B1B6823F0070265493B68134384
:100F8C000B60634B1B6803F007033A689A4201D06D
:100F9C000123B8E07B681B6803F00203002B20D010
:100FAC007B681B6803F00403002B05D0594B5B686E
:100FBC00584A43F4E06353607B681B6803F00803F2
:100FCC00002B05D0534B5B68524A43F4605353607B
:100FDC00504B5B6823F0F0027B689B684D491343D0
:100FEC004B607B681B6803F00103002B40D07B68CF
:100FFC005B68012B07D1474B1B6803F40033002BB4
:10100C0015D101237FE07B685B68022B07D1414B34
:10101C001B6803F00073002B09D1012373E03D4BD7
:10102C001B6803F00203002B01D101236BE0394B49
:10103C005B6823F003027B685B68364913434B60A3
:10104C00FFF756FAF8600AE0FFF752FA0246FB681F
:10105C00D31A41F28832934201D9032353E02D4B2A
:10106C005B6803F00C027B685B689B009A42EBD1D7
:10107C00274B1B6803F007033A689A4210D2244BA3
:10108C001B6823F0070222493B6813430B60204B7B
:10109C001B6803F007033A689A4201D0012332E03F
:1010AC007B681B6803F00403002B08D0194B5B68AA
:1010BC0023F4E0627B68DB68164913434B607B6862
:1010CC001B6803F00803002B09D0124B5B6823F458
:1010DC0060527B681B69DB000E4913434B6000F0C8
:1010EC0021F802460B4B5B681B0903F00F030A49FE
:1010FC00CB5C22FA03F3094A1360094B1B681846B0
:10110C00FFF7B4F9002318461037BD4680BD00BF69
:10111C0000200240001002401015000800000020C2
:10112C000400002090B48AB000AF294B3C1D0FCBBB
:10113C0084E80F0040F201233B800023FB61002375
:10114C00BB6100237B6200237B6100233B62214B4C
:10115C005B68FB61FB6903F00C03042B02D0082BCA
:10116C0003D02BE01C4B3B622BE0FB699B0C03F088
:10117C000F0328333B4413F8243C7B61FB6903F4D5
:10118C008033002B12D0134B5B685B0C03F0010314
:10119C0028333B4413F8283CBB617B690E4A03FBA4
:1011AC0002F2BB69B2FBF3F37B6204E07B690B4A8E
:1011BC0002FB03F37B627B6A3B6202E0064B3B6201
:1011CC0000BF3B6A18462837BD4690BC704700BF2D
:1011DC00001500080010024000127A0000093D00C2
:1011EC0080B400AF024B1B681846BD4680BC7047EC
:1011FC000000002080B500AFFFF7F2FF0246054B60
:10120C005B681B0A03F007030349CB5C22FA03F368
:10121C00184680BD001002402015000880B500AFB4
:10122C00FFF7DEFF0246054B5B68DB0A03F00703A2
:10123C000349CB5C22FA03F3184680BD0010024030
:10124C002015000880B485B000AF78600A4B1B688D
:10125C000A4AA2FB03235B0A7A6802FB03F3FB60D6
:10126C0000BFFB685A1EFA60002BF9D100BF00BF0B
:10127C001437BD4680BC704700000020D34D62106F
:10128C0080B582B000AF78607B68002B01D1012360
:10129C003FE07B6893F83D30DBB2002B06D17B68D6
:1012AC00002283F83C207868FFF750F87B682422F2
:1012BC0083F83D207B681B68DA687B681B6822F426
:1012CC000052DA60786800F029F87B681B681A69AC
:1012DC007B681B6822F490421A617B681B685A6910
:1012EC007B681B6822F02A025A617B681B68DA68EB
:1012FC007B681B6842F40052DA607B6800221A6437
:10130C007B68202283F83D207B68202283F83E20D6
:10131C00002318460837BD4680BD000080B584B058
:10132C0000AF78607B681B681B6923F440517B68B5
:10133C00DA687B681B680A431A617B689A687B6869
:10134C001B691A437B685B691343BB607B681B6832
:10135C00DB6823F4B05323F00C037A681268B96885
:10136C000B43D3607B681B685B6923F440717B681B
:10137C009A697B681B680A435A617B681B682C4A14
:10138C00934203D1FFF74AFFF86002E0FFF732FF08
:10139C00F860FA6813469B0013449A001A447B6861
:1013AC005B689B00B2FBF3F3224AA2FB03235B09AD
:1013BC001901FA6813469B0013449A001A447B687F
:1013CC005B689B00B2FBF3F21A4BA3FB02035B09B5
:1013DC00642000FB03F3D31A1B013233154AA2FB22
:1013EC0003235B0903F0F0031944FA6813469B00CE
:1013FC0013449A001A447B685B689B00B2FBF3F2BF
:10140C000C4BA3FB02035B09642000FB03F3D31A10
:10141C001B013233074AA2FB03235B0903F00F02C3
:10142C007B681B680A449A6000BF1037BD4680BDBC
:10143C00003801401F85EB510C480D490D4A002323
:10144C0002E0D458C4500433C4188C42F9D30A4A6D
:10145C000A4C002301E013600432A242FBD3FEF7D6
:10146C00E8FF00F00FF8FEF76BFE7047000000205D
:10147C000C000020301500080C000020700000202B
:10148C00FEE7000070B500260C4D0D4C641BA4103B
:10149C00A64209D100F022F800260A4D0A4C641B22
:1014AC00A410A64205D170BD55F8043B98470136EF
:1014BC00EEE755F8043B98470136F2E7281500088B
:1014CC0028150008281500082C15000803460244AE
:1014DC00934200D1704703F8011BF9E7F8B500BF40
:1014EC00F8BC08BC9E467047F8B500BFF8BC08BCF9
:0414FC009E46704751
:1015000002030405060708090A0B0C0D0E0F101044
:1015100000000000000000000102030406070809A3
:081520000000000001020304B9
:041528003101000885
:04152C000D010008A5
:0C1530000024F400100000000100000086
:040000050800144596
:00000001FF
