:020000040800F2
:10000000D8140020890100086B1000086D02000858
:1000100069100008C3050008651200080000000010
:100020000000000000000000000000009B0100082C
:10003000C505000800000000F70100086D10000869
:10004000A3010008A3010008A3010008A301000800
:10005000A3010008A3010008A3010008A3010008F0
:10006000A3010008A3010008A3010008A3010008E0
:10007000A3010008A3010008A3010008A3010008D0
:10008000A3010008A3010008A3010008A3010008C0
:10009000A3010008A3010008A3010008A3010008B0
:1000A000A3010008A3010008A3010008A3010008A0
:1000B000A3010008A3010008A3010008A301000890
:1000C000A3010008A3010008A3010008A301000880
:1000D000A3010008A3010008A3010008A301000870
:1000E000A3010008A3010008A301000800F002F822
:1000F00000F03AF80AA090E8000C82448344AAF188
:100100000107DA4501D100F02FF8AFF2090EBAE885
:100110000F0013F0010F18BFFB1A43F0010318473B
:100120003C3600005C360000103A24BF78C878C125
:10013000FAD8520724BF30C830C144BF04680C60ED
:10014000704700000023002400250026103A28BF35
:1001500078C1FBD8520728BF30C148BF0B60704739
:100160001FB51FBD10B510BD00F0EBF91146FFF72C
:10017000F7FF00F021FA00F009FA03B4FFF7F2FFED
:1001800003BC00F013FA0000094880470948004703
:10019000FEE7FEE7FEE7FEE7FEE7FEE7FEE7FEE737
:1001A000FEE7FEE704480549054A064B7047000094
:1001B00045110008ED000008D80E0020D8140020DA
:1001C000D8100020D8100020EFF3108072B67047CE
:1001D00080F310887047324A1368012B04D04FF027
:1001E000010313602F4A10602F4A11602F484FF00F
:1001F000805101607047EFF3108272B628480168A1
:1002000091B14FF0000101602648016829B1EFF378
:10021000098121E9F00F0068016023490968096834
:10022000B1E8F00F81F3098882F310884EF0040ED4
:1002300070471D4908601B494FF0000008601849CD
:100240004FF0010008601A481A49D0F8002041EA2E
:100250000201016015484FF08051016016480068A6
:10026000006880F3088861B662B670471EF0040F1C
:100270000CBFEFF30880EFF3098020E9F00F40F89E
:1002800004ED1EF0040F0CBF80F3088880F309888A
:1002900000B502F0FFF85DF804EB4EF0040E704775
:1002A000740000206C0000207000002004ED00E0CD
:1002B00020ED00E00000FFFF08ED00E040EA010350
:1002C000024630B59B0710D14FF0013400E008C260
:1002D00008C91D1B9D4315EAC41FF8D013F0FF0188
:1002E00002F8011B0DD01B0AF8E711F8013B002BA7
:1002F00002F8013B05D011F8013B002B02F8013B4D
:10030000F3D130BD10B5431C02E010F8011B71B1F0
:100310008107FAD14FF0013202C88C1A8C4314EADB
:10032000C211F9D0C01A0A0603D0C01E10BDC01AEF
:1003300010BD0A0401D0801E10BD0902FCD0401E71
:1003400010BD40EA010370B59B072ED14FF0013676
:10035000042A2AD308C810C99D1B9D43121F15EA01
:10036000C61517D0D8B2E1B2401A50EA056110D1D3
:1003700098B2A1B2401A50EA05410AD123F07F4059
:1003800024F07F41401A50EA052102D1180EA0EB5B
:10039000146070BDA342DBD018BA21BA884201D9DB
:1003A000012070BD4FF0FF3070BD0AB9002070BD54
:1003B00010F8013B11F8014B63B1A3420AD1521E60
:1003C00008D010F8013B11F8014B1BB1A34201D139
:1003D000521EEDD1181B70BD421E12F8013F002BBA
:1003E000FBD111F8013B002B02F8013BF9D170471A
:1003F00010B5203AC0F00B80B1E81850203AA0E8C0
:100400001850B1E81850A0E81850BFF4F5AF5FEAF3
:10041000027C24BFB1E81850A0E8185044BF18C9A6
:1004200018C0BDE810405FEA827C24BF51F8043B4D
:1004300040F8043B08BF7047D20728BF31F8023BA1
:1004400048BF11F8012B28BF20F8023B48BF00F835
:10045000012B70474FF000020429C0F0128010F009
:10046000030C00F01B80CCF1040CBCF1020F18BF90
:1004700000F8012BA8BF20F8022BA1EB0C0100F023
:100480000DB85FEAC17C24BF00F8012B00F8012BF6
:1004900048BF00F8012B70474FF0000200B513462B
:1004A00094469646203922BFA0E80C50A0E80C5094
:1004B000B1F12001BFF4F7AF090728BFA0E80C5045
:1004C00048BF0CC05DF804EB890028BF40F8042B3E
:1004D00008BF704748BF20F8022B11F0804F18BFAB
:1004E00000F8012B704710B5044610F0030F08BF49
:1004F00011F0030F40F015804FF0013E121FC0F2C3
:100500000E8051F8043BA3EB0E0C2CEA030C1CEA02
:10051000CE1C08BF40F8043BF0D0A1F1040102F169
:100520000402521E08DB11F8013B002B00F8013BCE
:10053000F7D11146FFF78EFF204610BD7047704778
:100540007047754600F02CF8AE46050069465346E4
:1005500020F00700854618B020B5FFF723FEBDE860
:1005600020404FF000064FF000074FF000084FF01A
:10057000000B21F00701AC46ACE8C009ACE8C009AB
:10058000ACE8C009ACE8C0098D46704710B5044618
:10059000AFF300802046BDE81040FFF7EEBD00003D
:1005A00000487047780E002070470000014918206D
:1005B000ABBEFEE72600020010B502F03BFE0020B5
:1005C00010BDFEE7704772B6FEE700002DE9F84F58
:1005D000DFF8B891002409F1040A0AF1040B23465C
:1005E0000F270BF1040EC9E00125A5402A40AA42BD
:1005F0007DD1674ED1F804C0ACEB0608B44532D0CB
:1006000014DCBCF1030F3AD009DCBCF1000F2AD096
:10061000BCF1010F1CD0BCF1020F31D11DE0BCF1C7
:10062000110F17D0BCF1120F2AD119E0B8F5881FAD
:1006300019D006DCB8F5803F15D0B8F5801F1FD162
:1006400011E0B8F5001F0ED0B8F5041F18D10AE06C
:10065000CB6815E0CB681B1D12E0CB6808330FE0B8
:10066000CB680C330CE08B682BB1012B4FF00803E7
:1006700003D0456104E0042302E0056100E00023AB
:10068000FF2A01D8064601E000F104064FEA84057E
:1006900001D9A5F12005D6F8008007FA05FC28EA63
:1006A0000C0803FA05F548EA0508C6F800804D680D
:1006B000ED0062D5374DAE6946F00106AE61AD6919
:1006C00024F0030605F001050095334D06EB050CFB
:1006D000DCF80850A607360F07FA06F825EA0805E1
:1006E000DFF8B880404503D14FF0000817E044E040
:1006F000DFF8AC80404502D14FF001080FE0DFF891
:10070000A480404502D14FF0020808E0DFF898804D
:10071000404502D14FF0030801E04FF0040808FA09
:1007200006F848EA0508CCF808804D68D9F800605A
:10073000ED034D4601D5164300E096432E604D680B
:10074000DAF80060AD03554601D5164300E0964344
:100750002E604D68DBF80060ED025D4601D5164362
:1007600000E096432E604D68DEF80060AD027546ED
:1007700001D5164300E096432E60641C0D682A469E
:10078000E5407FF431AFBDE8F88F00000004014080
:10079000000011100010024000000140000801405C
:1007A000000C01400010014000140140C26821EA21
:1007B00002030A4043EA0241016170470AB1016144
:1007C00070470904FBE7000001488068704700009B
:1007D00000000020074810B5016841F010010160D9
:1007E000032000F067F8002000F006F800F024F87D
:1007F000002010BD0020024070B50D4D04464FF49E
:100800007A712878B1FBF0F00A490968B1FBF0F081
:1008100000F0E4FA48B9102C07D200222146501EFD
:1008200000F028F800206C6070BD012070BD000051
:10083000000000200C0000200C4808B5816941F040
:1008400001018161816901F001010091C16941F0FB
:100850008051C161C06900F0805000900448416837
:1008600021F0E06141F00071416008BD00100240DC
:1008700000000140F0B40E4B1B680C46C3F302238A
:10088000C3F10705042D00D90425191D072901D23C
:10089000002300E0DB1E012606FA05F1491E214077
:1008A00099409E40761E16403143F0BC00F0DBBC00
:1008B0000CED00E0064900F0070208684FF6FF0360
:1008C000184040EA0220034A1043086070470000C5
:1008D0000CED00E00000FA052DE9F0470F46050099
:1008E00061D0434E306800F00700B84209D230684A
:1008F00020F0070038433060306800F00700B8424D
:1009000051D128683B4C810712D5400703D5606858
:1009100040F4E06060602878000703D5606840F428
:10092000605060606068A96820F0F0000843606073
:100930002878C00728D06868012810D021680228CC
:1009400010D0890700292EDA616821F003010143E4
:100950006160FFF739FF804641F288390DE0216878
:100960008903EFE78901EDE7FFF72EFFA0EB080110
:10097000494502D90320BDE8F0876068696800F046
:100980000C00B0EB810FEFD1306800F00700B842E7
:100990000BD9306820F0070038433060306800F031
:1009A0000700B84201D00120E5E72878400705D5C7
:1009B0006068E96820F4E060084360602878000718
:1009C00006D56068296920F4605040EAC100606083
:1009D00000F03EF86168084AC1F30311515CC84059
:1009E0000649086006480068FFF706FF0020C2E7D6
:1009F0000020024000100240963300080C00002046
:100A00000400002001480068704700000C0000202E
:100A10000448054900684968044AC1F30221515C51
:100A2000C84070470C00002000100240A6330008A8
:100A30000448054900684968044AC1F3C221515C71
:100A4000C84070470C00002000100240A633000888
:100A500012A185B00FC98DE80F0014A0144A0068D8
:100A600004905168134801F00C03042B10D0082B9C
:100A70000ED1C1F38343C9031DF803000AD55168A1
:100A800004AAC1F34041515C0A4A5043B0FBF1F063
:100A900005B0704708494843FAE70000020304051F
:100AA000060708090A0B0C0D0E0F101001020000BA
:100AB0000010024000127A0000093D002DE9F84FB5
:100AC000040070D02078C04DC00749D06868C0F3DA
:100AD0008100012807D06868C0F38100022809D18D
:100AE0006868C00306D52868800339D56068002887
:100AF000E7D035E06068B0F5803F0BD010B1B0F5BD
:100B0000A02F11D0286820F480302860286820F4B5
:100B1000802002E0286840F480302860606890B14E
:100B2000FFF752FE06460AE0286840F4802028605D
:100B3000F0E700BFFFF748FE801B642873D82868E1
:100B40008003F7D50CE0FFF73FFE064605E000BF47
:100B5000FFF73AFE801B6428F0D828688003F7D49A
:100B600020789A4E80074FF001094FF0000839D5E0
:100B7000686810F00C0F07D06868C0F38100022885
:100B800009D16868C00306D42868800714D5206995
:100B9000012808D110E02069B0B1C6F80090FFF735
:100BA00013FE074605E00AE1FFF70EFEC01B022810
:100BB000C4D828688007F7D52868616920F0F80054
:100BC00040EAC10028600DE0C6F80080FFF7FCFD98
:100BD000074604E0FFF7F8FDC01B022823D8286869
:100BE0008007F7D4207800072CD57948A169D9B1BE
:100BF000C0F80090FFF7E8FD074604E0FFF7E4FDCA
:100C0000C01B02280FD8686A8007F7D571484FF4D7
:100C1000FA510068B0FBF1F0009000BF0098411E4F
:100C20000091FAD20EE080E0C0F80080FFF7CCFD22
:100C3000074604E0FFF7C8FDC01B022875D8686AA4
:100C40008007F7D42078400760D5E8690027C00006
:100C500008D4E86940F08050E861E869012700F0B5
:100C6000805000905C480168C90513D40168834630
:100C700041F480710160FFF7A7FD824606E000BFE6
:100C8000FFF7A2FDA0EB0A0064284ED8DBF80000B5
:100C9000C005F5D5E06801280AD008B1052813D0B1
:100CA000286A20F001002862286A20F0040002E08F
:100CB000286A40F001002862E06841F2883B98B160
:100CC000FFF782FD82460BE0286A40F004002862AC
:100CD000EEE700BFFFF778FDA0EB0A0159455AD8AF
:100CE000286A8007F6D50CE0FFF76EFD824605E026
:100CF000FFF76AFDA0EB0A0159454CD8286A800726
:100D0000F6D41FB1E86920F08050E861E06988B34B
:100D10006968C1F38101022944D00228C6F86080C5
:100D200004D0FFF751FD044638E034E0FFF74CFDF6
:100D3000074604E0FFF748FDC01B02282BD82868AF
:100D40008001F7D4206AB0F5803F05D16868A168BA
:100D500020F4003008436860D4E90801084369685A
:100D600021F4741108436860C6F86090FFF72CFD09
:100D7000044606E025E000BFFFF726FD001B022821
:100D800009D828688001F7D51BE000BFFFF71CFDDC
:100D9000001B022802D90320BDE8F88F28688001D3
:100DA000F4D40EE00128F7D06868226A00F480319C
:100DB000914204D1616A00F47010884201D0012090
:100DC000EAE70020E8E7000000100240000042428D
:100DD000800442420C0000200070004010B5401E0C
:100DE000B0F1807F01D3012010BD4FF0E02460619D
:100DF0000F21601700F037FA0020A0610720206162
:100E0000002010BD70B5040004D094F83D0000250A
:100E100010B106E0012070BD84F83C50204600F07F
:100E200023F8242084F83D002068C16821F4005193
:100E3000C160204600F088F92068016921F49041E2
:100E400001612068416921F02A0141612068C1687F
:100E500041F40051C1602564202084F83D0084F8ED
:100E60003E00002070BD000030B585B00024009425
:100E700001940294039400681449884224D11448D0
:100E8000816941F480418161816901F4804104916B
:100E9000816941F00401816180690E4D00F0040018
:100EA00004904FF400700090022001900320039002
:100EB00069462846FFF78AFB2815CDE900046946F4
:100EC00028460294FFF782FB05B030BD0038014090
:100ED00000100240000801402DE9F843044690F854
:100EE0003D001F4616460D4620284CD1C5B1BEB167
:100EF00094F83C00012846D0012084F83C004FF0D3
:100F00000008C4F84080212084F83D00FFF75CFC15
:100F1000A6848146E684A068B0F5805F03D004E033
:100F20000120BDE8F883206928B12E465FF0000556
:100F300084F83C800EE00026FAE78021204600F08D
:100F40005FF9A0B9AEB116F8010B21684860E08CDA
:100F5000401EE084E08C4B464FF0000200970028D2
:100F6000EBD14FF04001204600F04AF930B10320A8
:100F7000D7E735F8020BC0F30800E6E7202084F835
:100F80003D000020CDE70220CBE7000070B586B021
:100F9000002418480094019402940394816941F05C
:100FA00010018161816901F010010491816941F0B2
:100FB00020018161816901F020010491816941F082
:100FC0000401816180690C4E00F004004FF440453B
:100FD0000490002229463046FFF7F0FB01200095DF
:100FE000CDE901040220039069463046FFF7EEFA8E
:100FF00006B070BD00100240001001401FB5094846
:101000001423032280218DE80F000023064A07A144
:10101000783801F0C3FD04B00248BDE810407838CC
:1010200001F020BE4C0100201D1900086C65640011
:101030000C4810B50A4901604FF4E13141600021CC
:1010400081600C22C160C0E904128161C161FFF7B7
:10105000D9FE002803D0BDE81040FFF7B4BA10BD98
:101060000038014090000020FEE7FEE710B501F0D7
:101070002BFB01F08FFEBDE8104001F033BB30B513
:101080008FB028216846FFF707FA14210AA8FFF756
:1010900003FA01210804CDE900100024029402257E
:1010A0000491CDE907504FF4E01009906846FFF72E
:1010B00005FD08B172B6FEE70F20CDE90A054FF431
:1010C0008060CDE90C4002210AA80E94FFF704FCD1
:1010D000002801D072B6FEE70FB030BD144910B53C
:1010E0004868144A10F00C03134803D0042B01D0B5
:1010F000082B09D002604968104AC1F30311515C02
:101100000268CA40026010BD4A684B6802F470125F
:101110004FF0020413F4803F04EB924202D04B687C
:101120009B0301D5064B00E0024B5A43E2E7000067
:101130000010024000127A000C00002096330008D4
:1011400000093D007047000070B504460068016961
:10115000E26821F44051114301612169A06808430C
:10116000616908432168CA6841F20C639A430243EB
:10117000CA6020684169A26921F44071114341614C
:101180001E492068884202D1FFF752FC01E0FFF7B8
:101190003FFC00EBC00101EB00126068642180009D
:1011A000B2FBF0F3B3FBF1F36FF018067343B2FB3D
:1011B000F0F5B2FBF0F605EB8305322303EB0515E2
:1011C000B5FBF1F5B6FBF1F605F0F00505EB0615FC
:1011D000B2FBF0F6B2FBF0F0B0FBF1F06FF01802EA
:1011E000504306EB800003EB0010B0FBF1F02168E8
:1011F00000F00F002844886070BD000000380140F6
:101200002DE9F041984617460E460446069D1DE01E
:10121000681C1BD02DB1FFF7D7FAA0EB0800A8423D
:1012200014D92068C16821F4D071C1602068416977
:1012300021F001014161202084F83D0084F83E0046
:10124000002084F83C000320BDE8F081206800689D
:1012500036EA000004D00020B842D9D00020F3E7DD
:101260000120F9E7FEE70907090E002804DB00F179
:10127000E02080F80014704700F00F0000F1E0203B
:1012800080F8141D70470000002806D00E4910F0A9
:10129000FF0F03D0C0B2085C401C704710F47F4FB2
:1012A00004D0C0F30720085C0930704710F47F0FAA
:1012B00004D0C0F30740085C1130704701EB1060A8
:1012C0000078193070470000AE3300082DE9F04F68
:1012D00089B092468B460646002400E0641C305DCF
:1012E000202803D0092801D05C45F7D34FF0FF3800
:1012F0007CB3194804F10609184F056811E006226D
:1013000017A12868FFF71DF850B928682246314612
:10131000801DFFF716F818B9296811F8090020B1E7
:101320000C3538688542EAD314E0AC688CB12021D2
:101330006846FFF7B1F86A465946304600F0EEFEBF
:1013400038B16946A047CAF80000002009B0BDE8DE
:10135000F08FFFE74046F9E7780000207C0000208E
:101360005F5F636D645F00002DE9FC411F4604462A
:10137000DDE90831DDE90A65143040600060C4E948
:101380000827C4E90A310A46232118461C3401F013
:101390000BFAD4E903014218D4E90101104B121FE2
:1013A00001F076F944F81A0B002004F801690D4A9F
:1013B00004F8036BE4E8020544F8105901C404F88A
:1013C0003C0B01C444F8740900902346019019466F
:1013D00004F1440001F072FD0020BDE8FC81000032
:1013E000052B0008D32C0008143001F0B9B970B5F2
:1013F0000546FEF7E9FE296F044609B128468847ED
:101400002046BDE87040FEF7E3BE000010B51BA00B
:1014100001F076F91C4C21781CA001F071F92078BC
:10142000C00702D01FA001F06BF92078800702D519
:101430001FA001F065F92078400702D51FA001F038
:101440005FF92078000702D520A001F059F9207833
:10145000C00602D520A001F053F92078000607D578
:1014600009480F300168BDE810401DA001F048B9DF
:10147000BDE810401EA001F043B900006275732062
:101480006661756C743A0A0029ED00E05343425FCF
:10149000434653525F424653523A307825303258D1
:1014A00020000000494255534552522000000000E0
:1014B000505245434953455252200000494D505225
:1014C000454349534552522000000000554E5354A5
:1014D0004B4552522000000053544B4552522000BD
:1014E0005343422D3E424641523A253038580A0075
:1014F0000A00000010B500F041FB002010BD000004
:10150000104810B5416991F82110890703D40E499C
:101510000020087013E0016921B180220A48FEF71B
:10152000E2FF0CE000F0F8FD08B108A100E009A11D
:101530000548FEF7C3FE09A10348FEF74DFF024828
:1015400010BD000078000020040900206D736820A1
:101550000000000066696E73682000003E00000015
:101560000349496911F8212F60F341020A7070475D
:1015700078000020014AC2E900017047780000208D
:101580007FB514491448FFF7F5FF154C13480A239B
:10159000A0F58F65606115224FF48061A0F5806031
:1015A0008DE80F0000230F4A0FA1783801F0F6FAFA
:1015B000064600231A460EA1606901F0E5F90120F4
:1015C000FFF7CEFF16B9284601F04CFB04B000200F
:1015D00070BD00005C370008CC360008000E00200B
:1015E00078000020F9150008747368656C6C0000C1
:1015F0007368727800000000984D686910F8211F28
:1016000041F001010170FFF77BFF01F079F800263E
:1016100000F008FF0400FBD41B2C07D0686990F889
:101620002010012907D002290ED017E06969012096
:1016300081F82000ECE75B2C02D080F820600DE000
:10164000022180F82010E3E780F82060412CDFD0F1
:10165000422CDDD0442C38D0432C43D0002CD7D0A2
:10166000FF2CD5D0092C4ED07F2C75D0082C73D0F0
:101670000D2C70D00A2CFCD0B0F87210502901D378
:10168000A0F87260B0F87430B0F872108B427DD25E
:10169000CA1A00F1220123301944184401F06AF8F3
:1016A0006869B0F8741022300C54686990F8211001
:1016B000C90706D0B0F874102230014468A001F0C8
:1016C0001FF86869B0F87440A5E0B0F8740000280D
:1016D0009ED064A001F014F8686930F8741F491EA8
:1016E000018095E7B0F87410B0F8722091428FD263
:1016F0002230095C5CA001F003F8696931F8740FCD
:10170000401C088084E7002403E056A000F0F8FFA6
:10171000641C6869B0F87400A042F6DC6C6953A0E0
:10172000223400F0EDFF00F0F7FC012802D1204642
:1017300000F02EFCFFF7E4FE014622464CA000F02C
:10174000DFFF68692230FEF7DDFD696921F8720F5D
:1017500048805DE700E03DE0B0F87420002AC0D08A
:10176000B0F87210521E491E89B293B2A0F87210DE
:10177000A0F87430994224D9CA1A00F1230122300A
:101780001944184400F0F6FF686900E049E0B0F839
:10179000721022300E546869B0F87410223001447F
:1017A00035A000F0ADFF6869B0F8744003E02DA0EB
:1017B00000F0A6FF641C6869B0F87200A04290DBDC
:1017C000F5E72FA000F09CFF6869B0F87210223096
:1017D0000E541DE700F0A0FC01280DD1686990F8B7
:1017E0002100C00702D021A000F08AFF6869B0F88C
:1017F0007210223000F022FCFFF782FE00F080FF22
:10180000686950212230FEF725FE686922E015A0A4
:1018100000F076FF641C6869B0F87200A042F6DC44
:101820000AE022300C54686990F82100C00703D008
:1018300021460DA000F064FF6869B0F87210491CE1
:1018400089B2A0F87210B0F87420521CA0F874206D
:101850005029BED320F8726F4680D9E67800002068
:101860002573000008000000256300000A00000046
:101870002573257300000000082573202008000050
:101880000820080010B5124C2068800702D511A06E
:1018900000F036FF2068400011D50D48C01E0078CA
:1018A00008B1FFF7B3FD0A48001F007808B100F047
:1018B00003FB0748801E008808B101F0FFFC206888
:1018C000002804DABDE8104008A000F019BF10BDE0
:1018D0002CED00E06661696C656420766563746F69
:1018E000722066657463680A0000000064656275B2
:1018F00067206576656E740A0000000010B502A0CE
:1019000000F0FEFE002010BD48656C6C6F20525444
:101910002D546872656164210A0000000A4C4FF47E
:1019200000464FF4FA75002231462046FEF746FF86
:10193000284601F0E4F8012231462046FEF73EFF3A
:10194000284601F0DCF8EEE70010014070B50CA06D
:1019500000F0D6FE0F48104D04680BE002220FA1E4
:101960002068FEF7EEFC20B1D4E900120CA000F0D4
:10197000C7FE0C3428688442F0D3002070BD0000FC
:101980002D2D46756E6374696F6E204C6973743AC1
:101990000A000000780000207C0000205F5F00004B
:1019A000252D313673202D2D2025730A00000000CF
:1019B0002DE9F04104461E4617460D46084600F044
:1019C00029FF001D2060257200206760C4E90360C4
:1019D000BDE8F0812DE9F0410D4600212961E9685B
:1019E00091B1297A81B12E6888B10446FEF7ECFBEB
:1019F0000146A4F10C002A7A007A20F0800090427F
:101A000009D00846FEF7E4FB0020BDE8F08134462B
:101A1000FEF7DAFB0146686800272468B44201D16A
:101A2000002404E010C0EA687F1CBA42F5D10846E1
:101A3000FEF7CEFB20462F61E7E700002DE9F041DD
:101A400094B0002733A408230BAA022105A8FFF7AE
:101A5000AFFF082080460146224631A000F050FE2C
:101A6000404600F0C3FB35A000F04AFE05A9384609
:101A7000FFF7B0FF0746002642E00BA850F82640CB
:101A80000C3CFEF7A1FB217A9DF81C2021F080017F
:101A9000914202D0FEF79CFB31E0FEF799FB04F186
:101AA00014006169054681421ED000F047FEA18BFB
:101AB000CDE9001023460822414626A000F020FE72
:101AC0002C680BE0A4F1140126A000F019FE206898
:101AD000A84202D024A000F013FE2468AC42F1D149
:101AE00015A000F00DFE0AE000F028FEA18BCDE964
:101AF00000102346082241461CA000F001FE761C7F
:101B00000998B042B9DC002FB0D114B00020BDE874
:101B1000F081000073656D6170686F726500000090
:101B2000252D2A2E73207620202073757370656E04
:101B300064207468726561640A000000202D2D2DF8
:101B4000202D2D2D2D2D2D2D2D2D2D2D2D2D2D0AF5
:101B500000000000252D2A2E2A7320253033642012
:101B600025643A00257300002F000000252D2A2E41
:101B70002A7320253033642025640A002DE9F041C2
:101B8000B4B000263CA408232CAA012126A8FFF704
:101B90000FFF0820804601462246394800F0B0FD7C
:101BA000404600F023FB37A000F0AAFD26A93046EE
:101BB000FFF710FF0646002554E02CA850F82540FA
:101BC0000C3CFEF701FB0746207A9DF8A01020F0A0
:101BD0008000884203D03846FEF7FAFA41E07822C6
:101BE000214607A8FEF704FC3846FEF7F1FA94F800
:101BF0003500009023460822414632A000F080FDC7
:101C000094F8340000F00F00012807D0022807D014
:101C100040B1042808D0032808D00AE02CA006E030
:101C20002EA004E030A002E032A000E034A000F0DA
:101C300067FDA06A014600E0401C0278232AFBD021
:101C4000E26A401A101A64235843B0FBF2F3276B80
:101C5000206CCDE90007E069081A81182BA000F07C
:101C60004FFD6D1C2A98A842A7DC002E9ED134B0EF
:101C70000020BDE8F08100007468726561640000B6
:101C8000D0340008202D2D2D20202D2D2D2D2D2D53
:101C90002D202D2D2D2D2D2D2D2D2D2D202D2D2D8E
:101CA0002D2D2D2D2D2D2D20202D2D2D2D2D2D208B
:101CB000202D2D2D2D2D2D2D2D2D2D202D2D2D0A91
:101CC00000000000252D2A2E2A73202533642000D1
:101CD0002072656164792020000000002073757314
:101CE00070656E640000000020696E697420202019
:101CF0000000000020636C6F73652020000000006E
:101D00002072756E6E696E670000000020307825C5
:101D10003038782030782530387820202020253041
:101D20003264252520202030782530387820253051
:101D300033640A00F0B593B0002626A408230BAA4A
:101D40000A2104A8FFF734FE08272246394623A0BB
:101D500000F0D6FC384600F049FA2AA000F0D0FC8A
:101D600004A93046FFF736FE0646002524E00BA8FE
:101D700050F825400C3CFEF727FA217A9DF81820F0
:101D800021F08001914202D0FEF722FA13E0FEF723
:101D90001FFAD4E90901CDE900012346082239469A
:101DA00021A000F0ADFC607AC00701D024A000E0C3
:101DB00026A000F0A5FC6D1C0898A842D7DC002ED8
:101DC000CED100F0E1FF014624A000F099FC13B051
:101DD0000020F0BD74696D6572000000252D2A2E6B
:101DE000732020706572696F6469632020207469B4
:101DF0006D656F757420202020202020666C61673F
:101E00000A000000202D2D2D2D2D2D2D2D2D2D20C6
:101E10002D2D2D2D2D2D2D2D2D2D202D2D2D2D2DFF
:101E20002D2D2D2D2D2D0A00252D2A2E2A73203003
:101E30007825303878203078253038782000000038
:101E40006163746976617465640A00006465616346
:101E5000746976617465640A0000000063757272CB
:101E6000656E74207469636B3A3078253038780A6F
:101E700000000000FEF7AEFCFFF701F9FFF786F85F
:101E8000FFF7D6F8FFF7BAF8064D4FF480444FF449
:101E9000FA7621462846FEF789FC304600F096FE89
:101EA000F7E700000010014010B500F06FFABDE840
:101EB0001040FFF7DFBF000010B518A000F020FCB5
:101EC0001B4C21781BA000F01BFC2078C00702D01F
:101ED0001EA000F015FC2078800702D51EA000F09F
:101EE0000FFC2078000702D51EA000F009FC207826
:101EF000C00602D51EA000F003FC2078000607D51E
:101F00000B480C300168BDE810401CA000F0F8BB85
:101F1000BDE810401D4800F0F3BB00006D656D206A
:101F20006D616E616765206661756C743A0A0000C8
:101F300028ED00E05343425F434653525F4D465302
:101F4000523A30782530325820000000494143434E
:101F500056494F4C200000004441434356494F4CE2
:101F6000200000004D554E53544B45525220000066
:101F70004D53544B45525220000000005343422D14
:101F80003E4D4D41523A253038580A002C33000856
:101F90002DE9F0478046002500782C4618B12248EC
:101FA000224F066831E0BDE8F0470021084600F006
:101FB00077B806221EA13068FEF7C3F920BB30684F
:101FC00000F106094046FEF79DF9024649464046A3
:101FD000FEF7B7F9C0B925B94C464846FEF792F965
:101FE00005464946204601E0401C491C02781AB1CA
:101FF0000B780BB19A42F7D0001BA84200DA0546D5
:1020000049460DA000F07CFB0C3638688642D0D3E0
:10201000002C06D02A4621464046BDE8F04700F095
:1020200025BDBDE8F0870000780000207C0000207E
:102030005F5F636D645F000025730A0038B5044676
:1020400001E0491E641C59B120782028F9D00928E4
:10205000F7D06A462046FFF739F918B1204604E068
:10206000002038BD009838BD401C0178202901D0DF
:102070000029F9D100210170214603A000F040FBA6
:102080004FF0FF3038BD000025733A20636F6D6D4F
:10209000616E64206E6F7420666F756E642E0A0028
:1020A00070B50EA000F02CFB1348144D04680CE032
:1020B000062213A12068FEF744F928B9D4E90012DA
:1020C00011A0891D00F01CFB0C3428688442EFD35A
:1020D00010A000F015FB002070BD000052542D54DC
:1020E0006872656164207368656C6C20636F6D6DE8
:1020F000616E64733A0A0000780000207C000020C2
:102100005F5F636D645F0000252D313673202D20E5
:1021100025730A000A0000000120704770B50023F3
:1021200015461C461A464BE000F8012B5B1C06784E
:10213000202E01D0092E01D18B42F5D3082C11D3CA
:1021400021A000F0DDFA002606E000BF55F82610B9
:1021500025A000F0D5FA761CA642F7D321A000F006
:10216000CFFA2FE08B422DD2F6B2222E03D045F8C3
:102170002400641C1BE0401C45F824005B1C641C0C
:1021800008E05C2E04D14678222E01D1401C5B1C55
:10219000401C5B1C0678222E01D08B42F1D38B426F
:1021A00010D200F8012B5B1C0AE0401C5B1C067877
:1021B000202E03D0092E01D08B42F6D38B4201D2C0
:1021C0008B42B4D3204670BD546F6F206D616E7921
:1021D00020617267732021205765206F6E6C792013
:1021E0005573653A0A0000002573200010B50446B7
:1021F00002E003A000F084FA641EFAD210BD0000D1
:102200002D0000002DE9F04F85B09946DDE90EA5BF
:10221000109CAB46630602D5DFF814C103E0DFF87B
:1022200010C1ACF1110CE30601D524F00104E30761
:1022300001D0302300E0202300260493A3070BD510
:10224000002A02DA2D26524206E0630701D52B262A
:1022500002E0230700D520260023EE4622B93022D3
:102260008DF8002001230CE0B9F10A0F14D002F020
:102270000F0812091CF808800EF803805B1C002A66
:10228000F2D1AB4200DD1D46AAEB050214F0110F9E
:102290004FF0200708D015E00A27B2FBF7F807FB3C
:1022A0001828B2FBF7F2E5E73EB1002A05DD521E21
:1022B00003E0884200D20770401CB2F1000CA2F18A
:1022C0000102F6DC26B1884200D20670401C521E84
:1022D000E40605D508E0884201D2049C0470401C45
:1022E000141EA2F10102F6DC30242E466D1E9E4221
:1022F0000ADD884200D20470401CF6E7884201D211
:10230000E55C0570401C00E074461D1EA3F101034E
:1023100007DDBBF1000FF1D103E0884200D2077066
:10232000401C131EA2F10102F7DC05B0BDE8F08FDE
:10233000BF3400081FB50A4C14230A224FF48061F1
:10234000A4F580608DE80F000023064A06A1204610
:1023500000F024FC04B02046BDE8104000F082BC30
:10236000D0050020A91E00086D61696E0000000004
:1023700070B5044C044D02E020688047241DAC4237
:10238000FAD370BDB8360008C036000870B5044CEA
:10239000044D02E020688047241DAC42FAD370BD92
:1023A000C0360008C836000810B5FDF70DFF044A16
:1023B0005188491C5180BDE81040FDF709BF00005D
:1023C0004800002010B5FDF7FFFE0B4C6188491E48
:1023D00009B2618000290ADC00216180FDF7F8FE66
:1023E0006068002807D0BDE8104000F055BABDE88D
:1023F0001040FDF7EDBE10BD4800002010B5FEF7FF
:10240000E9F9FEF73CFEFEF769FEFEF7FBFA4FF432
:102410007A71B0FBF1F0FEF7E1FCBDE81040FFF788
:10242000A7BF0000084810B500684FF0FF340168EE
:10243000C943890602D44068C4B202E00A2000F011
:10244000C5FBE0B210BD0000C0080020F8B506468C
:102450000D200F498DF80000002481F83C403046E3
:1024600000F0FCFA05460FE0305D0A2805D1012393
:102470001A4669460648FEF72FFD012331191A4610
:102480000348FEF729FD641CAC42EDD3F8BD000003
:10249000C008002070B50546041D2D48016819B11B
:1024A00028468847002851D02AA0E16B00F028F97F
:1024B0002CA0216A00F024F92EA0616A00F020F916
:1024C00030A0A16A00F01CF932A0E16A00F018F90E
:1024D00034A0216800F014F936A0616800F010F90A
:1024E00038A0A16800F00CF93AA0E16800F008F902
:1024F0003CA0216900F004F93EA0616900F000F9F8
:1025000040A0A16900F0FCF842A0E16900F0F8F8F1
:1025100044A0216B00F0F4F846A0616B00F0F0F8E5
:1025200048A0A16B00F0ECF82878400708D500F02F
:1025300073FB014647A000F0E3F8FFF71FFB02E042
:102540004CA000F0DDF8FFF79DF9FEE770BD00003C
:10255000680000207073723A203078253038780A8D
:10256000000000007230303A203078253038780A88
:10257000000000007230313A203078253038780A77
:10258000000000007230323A203078253038780A66
:10259000000000007230333A203078253038780A55
:1025A000000000007230343A203078253038780A44
:1025B000000000007230353A203078253038780A33
:1025C000000000007230363A203078253038780A22
:1025D000000000007230373A203078253038780A11
:1025E000000000007230383A203078253038780A00
:1025F000000000007230393A203078253038780AEF
:10260000000000007231303A203078253038780AE6
:10261000000000007231313A203078253038780AD5
:10262000000000007231323A203078253038780AC4
:1026300000000000206C723A203078253038780A8B
:10264000000000002070633A203078253038780A86
:102650000000000068617264206661756C74206F10
:102660006E207468726561643A2025730D0A0D0A44
:102670000000000068617264206661756C74206FF0
:102680006E2068616E646C65720D0A0D0A000000B0
:1026900070B50446121D22F007000022094D403893
:1026A00040F82250521C102AFAD3016200214162E4
:1026B00081624FF0807200F13005C263C16285E82B
:1026C0001A0070BDEFBEADDE10B5FDF77DFD044A0A
:1026D0001178491C1170BDE81040FDF779BD00006C
:1026E0001400002010B5FDF76FFD044A1178491E53
:1026F0001170BDE81040FDF76BBD00001400002014
:102700000FB47F2110B503AB0448029A00F048FCD7
:102710000248FFF79BFE10BC5DF814FB4007002049
:102720000268516002680A60016048607047026890
:10273000516002680A6001604860704702460021EB
:1027400000E0491C00689042FBD108467047D0E980
:1027500000124A60D0E900121160406000607047CA
:10276000D0E900124A60D0E90012116040600060B8
:102770007047000010B50346994211D28C189C4254
:102780000ED9811804E000BF14F8013D01F8013DA5
:10279000521EF9D210BD00BF11F8014B03F8014BD6
:1027A000521EF9D210BD000010B50346CCB2042A67
:1027B0001AD3810718D1194644EA042343EA034394
:1027C00006E008C1103A08C141F8083B41F8043C52
:1027D000102AF6D201E008C1121F042AFBD20B46D0
:1027E00002E000BF03F8014B521EFBD210BD10B532
:1027F000044600202072FDF7E7FCF4E903124A606A
:10280000D4E90012116064602460BDE81040FDF757
:10281000DFBC0000074A002102EB01131B78834252
:1028200002D102EB01107047491C0329F4DB0020A0
:1028300070470000180000202DE9F04105461746BA
:102840000E460846FFF7E6FF0446FFF7ADFD211DE3
:10285000606800E000688842FCD1FFF7B3FD46F0F5
:102860008000287208223946284600F0FFF8FDF75C
:10287000ABFC54F8041F0C354D60216829602560BD
:102880006C60BDE8F041FDF7A3BC007A000601D5FD
:10289000012070470020704770B5FDF795FC114C82
:1028A00005466088B0B9A068FEF7EEFC0E49401EF0
:1028B000626851F83010143991420BD020700B48E7
:1028C0006160007801F11C01002802F11C0006D0B3
:1028D000FDF781FC2846BDE87040FDF779BCFDF7A7
:1028E0007AFCF7E748000020C00700201400002011
:1028F00010B50446FDF768FC024694F834000E4912
:1029000020F00F00401C84F8340094F8350001EBEF
:10291000C00104F114004B6818604B68A361486063
:1029200006486161A16B836819438160BDE810406E
:102930001046FDF74DBC0000C007002048000020F5
:1029400010B50446FDF740FC04F11401D1E9002361
:102950005360D1E900231A60A161616194F83520C8
:10296000074951F8323001EBC2018B4204D10549CD
:10297000A36B8A689A438A60BDE81040FDF728BCC3
:10298000C0070020480000202DE9F04116460A4605
:102990001F4605460221FFF74FFF05F11404AC6105
:1029A0006C61AE836F720020BDE8F08108B509A0AC
:1029B000FFF7A6FE0AA0FFF7A3FE12A000900523D2
:1029C0000122032112A0FFF79BFEBDE8084018A0DA
:1029D000FFF796BE0A205C207C202F0A0000000032
:1029E0002D205254202D2020202020546872656113
:1029F00064204F7065726174696E672053797374D7
:102A0000656D0A0044656320313420323032310074
:102A1000202F207C205C202020202025642E25646F
:102A20002E2564206275696C642025730A000000FD
:102A30002032303036202D203230323020436F703B
:102A40007972696768742062792072742D74687273
:102A5000656164207465616D0A000000014600E054
:102A6000491C0A78002AFBD1081A704710B5002AC1
:102A700007D0034611F8014B03F8014B2CB1521E4D
:102A8000F8D110BD03F8011B00E00021521EF9D15E
:102A900010BD000010B50A4900230A4C4B801846AF
:102AA00004EBC002401C526012602028F8DB1F209B
:102AB000087003484B600C308B604060006010BDB4
:102AC00048000020C007002010B5074CA068FEF7A2
:102AD000DBFB0649401E51F8300014386060BDE849
:102AE00010401C30FDF7A5BB48000020C0070020A7
:102AF000014840600060704760000020704700F0AF
:102B000091B8000070B514480468FDF75DFB0546F8
:102B10002046FEF76CFC2046FFF712FF042084F8E5
:102B2000340004F1440000F0B5F92046FFF7ADFE93
:102B300001280CD004F114010848FFF7F1FD00BF93
:102B4000FFF7AAFE2846BDE87040FDF741BB2046CE
:102B5000FFF74DFEF4E700004C0000205400002079
:102B6000FEE700001FB5094820231F2280218DE8C1
:102B70000F000023064A07A1783800F00FF804B0D0
:102B80000248BDE81040783800F06CB8C00600205C
:102B9000612B00087469646C650000002DE9FF5F1B
:102BA00092460EAA0C4692E8E0010A4699468346F0
:102BB0000121FFF741FE8DE8E0014B4652462146D8
:102BC0005846FEF7D1FB04B0BDE8F09F10B500F009
:102BD000C1F8BDE8104000F025B870B5044690F883
:102BE000340000F00F00022802D04FF0FF3070BD1B
:102BF000FDF7EAFA054604F11400FFF7A8FD04F119
:102C0000440000F0B5F92846FDF7E2FA2046FFF748
:102C10006FFE002070BD0000014800687047000092
:102C20004C000020F1B5FDF7CFFA05460C480468CA
:102C3000204600F02DF804F144006A4600210646C3
:102C400000F004F9304600F051F92846FDF7C0FACB
:102C5000FFF722FE206B801C00D120630020F8BD0E
:102C60004C00002010B590F83610012280F8351085
:102C70008A400221826380F83410FFF7AEFF0348D8
:102C8000006808B1FFF708FE002010BD4C000020CE
:102C900070B5044690F8340000F00F00012802D00F
:102CA0004FF0FF3070BDFDF78FFA05462046FFF765
:102CB00047FE94F8340020F00F00801C84F83400A4
:102CC00004F1440000F054F92846FDF781FA002091
:102CD00070BD10B504466FF00100206304F11400CC
:102CE000FFF735FD2046FFF703FEBDE81040FFF774
:102CF000D3BD000070B5FDF767FA064613480468B7
:102D000094F8340000F00F00012819D1D4E905012E
:102D1000884215D004F114000546FFF718FD94F819
:102D200035000B4901EBC00041680D6041686960E6
:102D3000456028603046FDF74BFAFFF7ADFD02E035
:102D40003046FDF745FA002070BD00004C00002021
:102D5000C0070020002802DA4FF0FF3070474FF420
:102D60007A7190FBF1F290FBF1F301FB130000EBA1
:102D700040034A43C3EBC0104B1E03EBC00090FB63
:102D8000F1F01044704700000148006870470000EF
:102D900010000020094810B50168491C0160FFF7C8
:102DA0003BFF016C491E016403D1C16B0164FFF755
:102DB000A1FFBDE8104000F003B8000010000020A3
:102DC0002DE9FC41CDF804D0CDF800D0FFF7DCFFB1
:102DD0000646FDF7F9F907461B4D2DE060696FF0D7
:102DE0000041301A143C884229D22046FEF7FCFAF2
:102DF000607A810702D420F00100607204F11401AE
:102E000088466846FFF793FCD4E907108847FFF728
:102E1000BBFF06460098694688420DD04046FFF742
:102E20009FFC607A810707D5C10705D020F001001B
:102E30006072204600F05AF82C68AC42CED1384679
:102E4000FDF7C6F9BDE8FC816000002070B51546AD
:102E50000E460446FDF7B8F9052E17D2DFE806F056
:102E60000503080C1100616A0FE0296861620DE03A
:102E7000617A21F0020102E0617A41F0020161729F
:102E800004E0617AC90700D001212960FDF7A0F9AB
:102E9000002070BD70B50446FDF796F90546204642
:102EA000FEF7A2FA607A20F0010060722846FDF772
:102EB0008FF92046FFF79BFC002070BD2DE9F04103
:102EC0001746DDE906580A461E4604460A21FFF762
:102ED000B3FC28F0010161720021C4E90951C4E981
:102EE0000776143464602460BDE8F0812DE9F8436E
:102EF0000446FDF769F980462046FEF775FA607AC8
:102F000020F001006072FFF73FFF616A174A431823
:102F1000A3620020009202EBC002694656686FF07F
:102F200000475DF820200AE01268A2EBC0056D6939
:102F30009D4202D0ED1ABD4203D341F82020B24297
:102F4000F2D10A48001F0168491C016004F1140114
:102F50000098FFF7ECFB607A40F001006072404699
:102F6000FDF736F90020BDE8F8830000600000207E
:102F700070B50446407AC0070ED0FDF725F9054626
:102F80002046FEF731FA607A20F001006072284690
:102F9000FDF71EF9002070BD4FF0FF3070BD00003E
:102FA0002DE9FF4F8946044600EB090783B08046B0
:102FB0004FF0FF3A4FF0200BA74202D25746C8F11C
:102FC000FF390BE1252803D0BC4200D2207080E0FD
:102FD00000260599491C059108782D2811D02B2829
:102FE00012D0202813D0232814D0302815D00A78E6
:102FF0005546303A0A2A13D205A800F030F90546A2
:103000001AE046F01006E4E746F00406E1E746F071
:103010000806DEE746F02006DBE746F00106D8E7C3
:103020002A2809D10698491C059120C80690002D30
:1030300002DA6D4246F010060598D44601782E2932
:1030400018D1401C05900178A1F130020A2A04D25F
:1030500005A800F004F9844607E02A2908D1401C9D
:103060000590069850F804CB0690BCF1000F01DAE9
:103070004FF0000C059A00201178682901D06C29C6
:1030800002D1521C0846059211780A236F2974D088
:103090000CDC63291FD004DC25296FD058290DD101
:1030A00084E0642901D0692908D183E0702966D0C1
:1030B00073292CD075297FD0782979D0BC4201D2D0
:1030C000252020700598641C0178E9B3BC4200D229
:1030D0002170641C7FE0F00608D458466D1E002D58
:1030E00004DDBC4200D22070641CF7E70698BC42A5
:1030F00010F8041B069000D22170584602E0BC4232
:1031000000D22070641C6D1E002DF8DC63E0069870
:1031100002C8069001B941A1002000E0401CA8426D
:1031200002D00A5C002AF9D1BCF1000F02DD604533
:1031300000DD6046F2060BD45A462B466D1E8342D4
:1031400006DDBC4202D200E054E02270641CF4E7C9
:10315000002206E0BC4201D20B782370491C521CAD
:10316000641C8242F6DB5A4629466D1E814232DDDE
:10317000BC4200D22270641CF6E715E010E0681C27
:1031800002D1082546F00106CDE9005C06980296BA
:10319000102304C806903946204619E00CE007E0E9
:1031A000BC4296D2252011E7082305E046F04006F0
:1031B000102301E046F002066C2801D068281CD0DC
:1031C000069804C80690CDE9005C39462046029670
:1031D000FFF718F804460598401C059005980078FC
:1031E00000287FF4EFAEB9F1000F11D0BC420DD230
:1031F00020700DE0401E0590EDE7069830F8041BA6
:1032000006908AB2B007DED512B2DCE707F8010CEF
:1032100007B0A4EB0800BDE8F08F0000284E554C25
:103220004C290000002070470020704700207047A4
:103230000020704710B5FCF7C7FFFFF7DFF8FFF776
:10324000B5FBFFF755FCFFF725FCFFF773F8FFF719
:1032500055FCFFF787FCFFF737FC002010BD10B5C9
:10326000014600206FF02F0307E0541C0C60127819
:1032700000EB800003EB400010440A681478303CF7
:103280000A2CF2D310BD00000B4810B509490160AB
:103290004FF4E1314160002181600C22C160C0E93E
:1032A00004128161C161FDF7ADFD002800D0FEE789
:1032B00010BD000000380140C008002010B518A063
:1032C000FFF71EFA1A4C21881AA0FFF719FA208876
:1032D000C00702D01DA0FFF713FA2088800702D58F
:1032E0001DA0FFF70DFA2088400702D51DA0FFF7AB
:1032F00007FA2088000702D51CA0FFF701FA2088F2
:10330000C00502D51BA0FFF7FBF92088800502D578
:103310001BA0FFF7F5F9BDE8104004A0FFF7F0B9D6
:103320007573616765206661756C743A0A00000008
:103330002AED00E05343425F434653525F554653E4
:10334000523A30782530325820000000554E44451E
:1033500046494E5354522000494E56535441544509
:1033600020000000494E5650432000004E4F43506D
:1033700020000000554E414C49474E454420000076
:1033800044495642595A45524F20000010B5FFF7A4
:103390000DFB002010BD0000000000000000010235
:1033A00003040607080900000000010203040000EE
:1033B00001000200010003000100020001000400FE
:1033C00001000200010003000100020001000500ED
:1033D00001000200010003000100020001000400DE
:1033E00001000200010003000100020001000600CC
:1033F00001000200010003000100020001000400BE
:1034000001000200010003000100020001000500AC
:10341000010002000100030001000200010004009D
:10342000010002000100030001000200010007008A
:10343000010002000100030001000200010004007D
:10344000010002000100030001000200010005006C
:10345000010002000100030001000200010004005D
:10346000010002000100030001000200010006004B
:10347000010002000100030001000200010004003D
:10348000010002000100030001000200010005002C
:10349000010002000100030001000200010004001D
:1034A00001000200010003000100020001003031B0
:1034B00032333435363738396162636465660030DB
:1034C000313233343536373839414243444546008A
:1034D000252D2A2E732070726920207374617475F3
:1034E000732020202020207370202020202073743F
:1034F00061636B2073697A65206D617820757365EF
:1035000064206C656674207469636B202065727238
:103510006F720A0068656C6C6F0073617920686572
:103520006C6C6F20776F726C640076657273696F74
:103530006E0073686F772052542D54687265616411
:103540002076657273696F6E20696E666F726D6149
:1035500074696F6E005F5F636D645F766572736937
:103560006F6E0073686F772052542D5468726561D6
:10357000642076657273696F6E20696E666F726D16
:103580006174696F6E006C6973745F7468726561F1
:1035900064006C69737420746872656164005F5FB5
:1035A000636D645F6C6973745F74687265616400F5
:1035B0006C69737420746872656164006C697374FB
:1035C0005F73656D006C6973742073656D617068FD
:1035D0006F726520696E2073797374656D005F5F2B
:1035E000636D645F6C6973745F73656D006C6973A0
:1035F000742073656D6170686F726520696E2073E9
:10360000797374656D006C6973745F74696D65724C
:10361000006C6973742074696D657220696E207323
:10362000797374656D005F5F636D645F6C6973745B
:103630005F74696D6572006C6973742074696D657F
:103640007220696E2073797374656D006C69737490
:10365000006C69737420616C6C2073796D626F6C9F
:1036600020696E2073797374656D005F5F636D64AC
:103670005F68656C700052542D54687265616420F7
:103680007368656C6C2068656C702E005F5F636D9D
:10369000645F7073004C6973742074687265616450
:1036A0007320696E207468652073797374656D2E5C
:1036B0000000000031320008293200088932000879
:1036C00025320008811500082D3200081435000845
:1036D0001A350008FD1800082A35000832350008A0
:1036E0008D33000855350008633500088D33000818
:1036F00086350008923500087D1B00089E350008BD
:10370000B03500087D1B0008BC350008C535000831
:103710003D1A0008DE350008ED3500083D1A0008A6
:103720000636000811360008351D00082636000848
:1037300037360008351D00084C36000851360008A1
:103740004D1900086B36000876360008A1200008E5
:103750008C36000895360008F51400087C37000800
:103760000000002090000000280100080C3800082C
:1037700090000020481400004401000801000000EF
:1037800010000000000000000024F4000000000011
:1037900000000000010000001C0000201C000020B0
:1037A00078000000020000002C0000202C00002007
:1037B000200000000A0000003C0000203C00002027
:1037C0002C000000000000000000000000000000CD
:1037D00000000000000000000000000000000000E9
:1037E00000000000000000000000000000000000D9
:1037F00000000000000000000000000000000000C9
:0C380000000000000000000000000000BC
:04000005080000ED02
:00000001FF
